:0A090000D281D282D2837F507EC3E1
:0A090A00EF1F70011E144E70F7225B
:1008E4007F027E001208887F027E001208B67F0213
:0C08F4007E001208447F027E0002080013
:100888008E088F09120914E5091509AE08700215BA
:10089800084E6017C2A5120906D2A5C2A4120906FD
:0E08A800D2A4C2A3120906D2A380DC02092743
:1008B6008E088F09120914E5091509AE087002158C
:1008C600084E6017C2A3120906D2A3C2A4120906D3
:0E08D600D2A4C2A5120906D2A580DC02092711
:10080000AD07AC06ED1DAE0470011C4E6035C2A5EF
:10081000120900D2A5C281C282C283C2A4D284D2EC
:1008200085D286120906D2A4C284C285C286C2A31A
:10083000D287D2A7D2A6120906D2A3C287C2A7C264
:04084000A680C122AB
:10084400AD07AC06C2A3C2A4C2A5ED1DAE047001DF
:100854001C4E6029120900C281C282C283D284D292
:1008640085D286120906C284C285C286D287D2A7DF
:10087400D2A6120906C287C2A7C2A680CDD2A3D22D
:04088400A4D2A52233
:10091400D281D282D283D284D285D286D287D2A700
:03092400D2A62236
:10092700C281C282C283C284C285C286C287C2A76D
:03093700C2A62233
:0300000002093AB8
:0C093A00787FE4F6D8FD7581090208E41E
:00000001FF
